{
  "abi": [
    {
      "inputs": [],
      "stateMutability": "nonpayable",
      "type": "constructor"
    },
    {
      "inputs": [],
      "name": "Trustus__InvalidPacket",
      "type": "error"
    },
    {
      "anonymous": false,
      "inputs": [
        {
          "indexed": true,
          "internalType": "address",
          "name": "claimer",
          "type": "address"
        },
        {
          "indexed": true,
          "internalType": "address",
          "name": "claimManager",
          "type": "address"
        }
      ],
      "name": "Claimed",
      "type": "event"
    },
    {
      "anonymous": false,
      "inputs": [
        {
          "indexed": true,
          "internalType": "address",
          "name": "previousOwner",
          "type": "address"
        },
        {
          "indexed": true,
          "internalType": "address",
          "name": "newOwner",
          "type": "address"
        }
      ],
      "name": "OwnershipTransferred",
      "type": "event"
    },
    {
      "anonymous": false,
      "inputs": [
        {
          "indexed": true,
          "internalType": "address",
          "name": "claimManager",
          "type": "address"
        },
        {
          "indexed": false,
          "internalType": "bool",
          "name": "isClaimManager",
          "type": "bool"
        }
      ],
      "name": "UpdatedClaimManager",
      "type": "event"
    },
    {
      "anonymous": false,
      "inputs": [
        {
          "indexed": true,
          "internalType": "address",
          "name": "signer",
          "type": "address"
        },
        {
          "indexed": false,
          "internalType": "bool",
          "name": "isTrusted",
          "type": "bool"
        }
      ],
      "name": "UpdatedTrustedSigner",
      "type": "event"
    },
    {
      "inputs": [],
      "name": "DOMAIN_SEPARATOR",
      "outputs": [
        {
          "internalType": "bytes32",
          "name": "",
          "type": "bytes32"
        }
      ],
      "stateMutability": "view",
      "type": "function"
    },
    {
      "inputs": [
        {
          "internalType": "bytes32",
          "name": "request",
          "type": "bytes32"
        },
        {
          "components": [
            {
              "internalType": "uint8",
              "name": "v",
              "type": "uint8"
            },
            {
              "internalType": "bytes32",
              "name": "r",
              "type": "bytes32"
            },
            {
              "internalType": "bytes32",
              "name": "s",
              "type": "bytes32"
            },
            {
              "internalType": "bytes32",
              "name": "request",
              "type": "bytes32"
            },
            {
              "internalType": "uint256",
              "name": "deadline",
              "type": "uint256"
            },
            {
              "internalType": "bytes",
              "name": "payload",
              "type": "bytes"
            }
          ],
          "internalType": "struct Trustus.TrustusPacket",
          "name": "packet",
          "type": "tuple"
        }
      ],
      "name": "claim",
      "outputs": [],
      "stateMutability": "nonpayable",
      "type": "function"
    },
    {
      "inputs": [
        {
          "internalType": "contract ClaimManager",
          "name": "",
          "type": "address"
        }
      ],
      "name": "isClaimManager",
      "outputs": [
        {
          "internalType": "bool",
          "name": "",
          "type": "bool"
        }
      ],
      "stateMutability": "view",
      "type": "function"
    },
    {
      "inputs": [],
      "name": "owner",
      "outputs": [
        {
          "internalType": "address",
          "name": "",
          "type": "address"
        }
      ],
      "stateMutability": "view",
      "type": "function"
    },
    {
      "inputs": [],
      "name": "renounceOwnership",
      "outputs": [],
      "stateMutability": "nonpayable",
      "type": "function"
    },
    {
      "inputs": [
        {
          "internalType": "contract ClaimManager",
          "name": "claimManager",
          "type": "address"
        },
        {
          "internalType": "bool",
          "name": "isClaimManager_",
          "type": "bool"
        }
      ],
      "name": "setClaimManager",
      "outputs": [],
      "stateMutability": "nonpayable",
      "type": "function"
    },
    {
      "inputs": [
        {
          "internalType": "address",
          "name": "signer",
          "type": "address"
        },
        {
          "internalType": "bool",
          "name": "isTrusted",
          "type": "bool"
        }
      ],
      "name": "setIsTrusted",
      "outputs": [],
      "stateMutability": "nonpayable",
      "type": "function"
    },
    {
      "inputs": [
        {
          "internalType": "address",
          "name": "newOwner",
          "type": "address"
        }
      ],
      "name": "transferOwnership",
      "outputs": [],
      "stateMutability": "nonpayable",
      "type": "function"
    }
  ],
  "bytecode": {
    "object": "0x60c060405234801561001057600080fd5b50466080526100bd604080517f8b73c3c69bb8fe3d512ecc4cf759cc79239f7b179b0ffacaa9a75d522b39400f60208201527f1e9cb9ef1707245d4c70d04bee6987442a8d80d1e31e8a5cccba35e4eacae31c918101919091527fc89efdaa54c0f20c7adf612882df0950f5a951637e0307cdcb4c672f298b8bc660608201524660808201523060a082015260009060c00160405160208183030381529060405280519060200120905090565b60a0526100c9336100ce565b610120565b600180546001600160a01b038381166001600160a01b0319831681179093556040519116919082907f8be0079c531659141344cd1fd0a4f28419497f9722a3daafe3b4186f6b6457e090600090a35050565b60805160a051610a2d61014560003960006102b6015260006101e10152610a2d6000f3fe608060405234801561001057600080fd5b50600436106100885760003560e01c80638da5cb5b1161005b5780638da5cb5b146100d8578063b345775f146100f3578063d2121f7514610126578063f2fde38b1461013957600080fd5b80631393916a1461008d5780633644e515146100a25780635ff5e8b9146100bd578063715018a6146100d0575b600080fd5b6100a061009b366004610838565b61014c565b005b6100aa6101dd565b6040519081526020015b60405180910390f35b6100a06100cb36600461086d565b6102d8565b6100a0610495565b6001546040516001600160a01b0390911681526020016100b4565b6101166101013660046108bb565b60026020526000908152604090205460ff1681565b60405190151581526020016100b4565b6100a0610134366004610838565b6104cb565b6100a06101473660046108bb565b6105a3565b6001546001600160a01b0316331461017f5760405162461bcd60e51b8152600401610176906108df565b60405180910390fd5b6001600160a01b03821660008181526020818152604091829020805460ff191685151590811790915591519182527f25dd6eb01b7025ce5739289bada84924797a8424b23d6d473a80dec94af8845e91015b60405180910390a25050565b60007f000000000000000000000000000000000000000000000000000000000000000046146102b3576102ae604080517f8b73c3c69bb8fe3d512ecc4cf759cc79239f7b179b0ffacaa9a75d522b39400f60208201527f1e9cb9ef1707245d4c70d04bee6987442a8d80d1e31e8a5cccba35e4eacae31c918101919091527fc89efdaa54c0f20c7adf612882df0950f5a951637e0307cdcb4c672f298b8bc660608201524660808201523060a082015260009060c00160405160208183030381529060405280519060200120905090565b905090565b507f000000000000000000000000000000000000000000000000000000000000000090565b81816102e4828261063e565b61030157604051630e06dc0560e41b815260040160405180910390fd5b60008061031160a0860186610914565b81019061031e9190610962565b90925090506001600160a01b038216331461037b5760405162461bcd60e51b815260206004820152601d60248201527f436c61696d4d616e616765723a206e6f7420796f7572207061636b65740000006044820152606401610176565b6001600160a01b038116600090815260026020526040902054819060ff166103f95760405162461bcd60e51b815260206004820152602b60248201527f436c61696d4d616e616765723a20696e76616c696420636c61696d206d616e6160448201526a676572206164647265737360a81b6064820152608401610176565b604051630f41a04d60e11b81526001600160a01b038481166004830152821690631e83409a90602401600060405180830381600087803b15801561043c57600080fd5b505af1158015610450573d6000803e3d6000fd5b50506040516001600160a01b038086169350861691507f89309c9b2aeaffbdce717113df9427298b20448c05919bf889e05f8c3094254b90600090a350505050505050565b6001546001600160a01b031633146104bf5760405162461bcd60e51b8152600401610176906108df565b6104c960006107bc565b565b6001546001600160a01b031633146104f55760405162461bcd60e51b8152600401610176906108df565b6001600160a01b03821661054b5760405162461bcd60e51b815260206004820152601b60248201527f436c61696d56657269666965723a207a65726f206164647265737300000000006044820152606401610176565b6001600160a01b038216600081815260026020908152604091829020805460ff191685151590811790915591519182527fb83782fdecadf388321231f2ccdcd1f7ca373ab5ee39c3364af08fc1119dba5f91016101d1565b6001546001600160a01b031633146105cd5760405162461bcd60e51b8152600401610176906108df565b6001600160a01b0381166106325760405162461bcd60e51b815260206004820152602660248201527f4f776e61626c653a206e6577206f776e657220697320746865207a65726f206160448201526564647265737360d01b6064820152608401610176565b61063b816107bc565b50565b60008160800135421115610654575060006107b6565b81606001358314610667575060006107b6565b600060016106736101dd565b7ffc7ecbf4f091085173dad8d1d3c2dfd218c018596a572201cd849763d1114e7a606086013560808701356106ab60a0890189610914565b6040516020016106bf959493929190610990565b604051602081830303815290604052805190602001206040516020016106fc92919061190160f01b81526002810192909252602282015260420190565b60408051601f19818403018152919052805160209182012090610721908601866109d4565b604080516000815260208181018084529490945260ff9092168282015291860135606082015290850135608082015260a0016020604051602081039080840390855afa158015610775573d6000803e3d6000fd5b5050604051601f1901519150506001600160a01b038116158015906107b257506001600160a01b03811660009081526020819052604090205460ff165b9150505b92915050565b600180546001600160a01b038381166001600160a01b0319831681179093556040519116919082907f8be0079c531659141344cd1fd0a4f28419497f9722a3daafe3b4186f6b6457e090600090a35050565b6001600160a01b038116811461063b57600080fd5b8035801515811461083357600080fd5b919050565b6000806040838503121561084b57600080fd5b82356108568161080e565b915061086460208401610823565b90509250929050565b6000806040838503121561088057600080fd5b82359150602083013567ffffffffffffffff81111561089e57600080fd5b830160c081860312156108b057600080fd5b809150509250929050565b6000602082840312156108cd57600080fd5b81356108d88161080e565b9392505050565b6020808252818101527f4f776e61626c653a2063616c6c6572206973206e6f7420746865206f776e6572604082015260600190565b6000808335601e1984360301811261092b57600080fd5b83018035915067ffffffffffffffff82111561094657600080fd5b60200191503681900382131561095b57600080fd5b9250929050565b6000806040838503121561097557600080fd5b82356109808161080e565b915060208301356108b08161080e565b85815284602082015283604082015260806060820152816080820152818360a0830137600081830160a090810191909152601f909201601f19160101949350505050565b6000602082840312156109e657600080fd5b813560ff811681146108d857600080fdfea26469706673582212200c95ecf87fa55f606d25d7ac415d180b44fb7f9aba021ff41928334f17ec59ec64736f6c634300080d0033",
    "linkReferences": {}
  }
}